:020000040000FA
:10500000F0FE0220E1540000257000002570000031
:1050100025700000257000002570000000000000D1
:10502000000000000000000000000000EF6E000023
:105030002570000000000000676F00002570000070
:10504000257000002570000025700000257000000C
:1050500025700000257000002570000025700000FC
:1050600025700000257000002570000025700000EC
:1050700025700000257000002570000025700000DC
:10540000FFFFFFFFFFFFFFFFFFFFFFFFFEFFFFFFAD
:1054100000F002F800F0A6F80AA090E8000C824420
:105420008344AAF10107DA4501D100F09BF8AFF2FD
:10543000090EBAE80F0013F0010F18BFFB1A43F072
:105440000103184794F60100E4F601000A444FF006
:10545000000C10F8013B13F0070408BF10F8014BD3
:105460001D1108BF10F8015B641E05D010F8016B18
:10547000641E01F8016BF9D113F0080F1EBF10F87C
:10548000014BAD1C0C1B09D16D1E58BF01F801CB9F
:10549000FAD505E014F8016B01F8016B6D1EF9D522
:1054A0009142D6D370470000103A24BF78C878C123
:1054B000FAD8520724BF30C830C144BF04680C601A
:1054C000704700000023002400250026103A28BF62
:1054D00078C1FBD8520728BF30C148BF0B60704766
:1054E000124813494FF0FF324FF0080333B140F830
:1054F000042B41F8042BA3F10103F7E7EFF3088035
:1055000080F30988EFF3148040F0020080F31488E0
:10551000BFF36F8FDFF81C00016841F47001016078
:1055200005484FF0000101601DF098BA80E100E0ED
:1055300080E200E088ED00E034EF00E01FB51EF0EF
:10554000E4FB00F0E1FB0400002000211DF0D0FD91
:10555000401C6060002000211DF0E0FDE0601FBDE8
:1055600010B510BD00F00EF81146FFF7E7FF1AF076
:105570005FFD00F057FE03B4FFF7F2FF03BC00F03D
:10558000C3FE00004FF000004FF000027047000023
:1055900080F31188704753EA020C00F069802DE90E
:1055A000F04B4FF00006002B1FBFB3FA83F503FA50
:1055B00005F424FA05F65E4012BF1643B2FA82F5EE
:1055C00002FA05F4C5F120051EBF22FA05FC44EAE3
:1055D0000C04203556EA044C4FEA144418BF641CEE
:1055E0004FF000084FF00009904271EB030C39D3E3
:1055F000002919BFB1FA81F701FA07F6B0FA80F76E
:1056000000FA07F6C7F120071EBF20FA07FC46EA9A
:105610000C062037B6FBF4FCA7EB0507103F07F09C
:105620001F0BCBF120060CFA0BFB2CFA06F644BF3D
:10563000B3460026202FA4BF5E464FF0000B5BEA66
:10564000060C08BF4FF0010B19EB0B09ABFB027CFA
:1056500048EB0608C01B06FB02CC0BFB03CC71EB2E
:105660000C01C1E70B46024641464846BDE8F08BB7
:1056700013B54FF000004FF00001AFF30080BDE81C
:105680001C40704710B54C1084EA530404D54042C6
:10569000C1F1000138BF491E1B4204D55242C3F17B
:1056A000000338BF5B1EFFF776FF14F0804F04D075
:1056B0004042C1F1000138BF491E14F0004F04D030
:1056C0005242C3F1000338BF5B1E10BD70B50646E1
:1056D00000F034FA0468054630460A22002100F042
:1056E000DBFA2C6070BD2DE9F05F93460F468046D3
:1056F0000446002600F022FAD0F80090824614F802
:10570000015B2DB100F012FA0068405DC007F6D1D0
:105710002B2D02D02D2D1AD0641E0021CAF80010A6
:105720005A463946204600F018FA014627B1386833
:10573000A04201D1C7F80080DAF80000022809D0A1
:10574000CAF80090700505D54842BDE8F09F46F4C0
:105750008066E2E70846F8E710B5431E13F8014FEC
:10576000002CFBD105E011F8014B002C03F8014B94
:1057700003D0521EF7D20021197010BD30B5054676
:105780000B462A4613F8014B12F8010B08B1A04250
:10579000F8D01CB1002802D06D1CF1E7284630BDBE
:1057A00040EA0103024630B59B0710D14FF00134A7
:1057B00000E008C208C91D1B9D4315EAC41FF8D0AC
:1057C00013F0FF0102F8011B0DD01B0AF8E711F8D6
:1057D000013B002B02F8013B05D011F8013B002BE7
:1057E00002F8013BF3D130BD10B5431C02E010F8C4
:1057F000011B71B18107FAD14FF0013202C88C1A36
:105800008C4314EAC211F9D0C01A0A0603D0C01E94
:1058100010BDC01A10BD0A0401D0801E10BD0902BF
:10582000FCD0401E10BD40EA010370B59B072ED18D
:105830004FF00136042A2AD308C810C99D1B9D4386
:10584000121F15EAC61517D0D8B2E1B2401A50EAB5
:10585000056110D198B2A1B2401A50EA05410AD1AF
:1058600023F07F4024F07F41401A50EA052102D105
:10587000180EA0EB146070BDA342DBD018BA21BA99
:10588000884201D9012070BD4FF0FF3070BD0AB9C8
:10589000002070BD10F8013B11F8014B63B1A34229
:1058A0000AD1521E08D010F8013B11F8014B1BB170
:1058B000A34201D1521EEDD1181B70BD421E12F839
:1058C000013F002BFBD111F8013B002B02F8013BFB
:1058D000F9D17047032A40F2308010F0030C00F039
:1058E000158011F8013BBCF1020F624498BF11F81A
:1058F00001CB00F8013B38BF11F8013BA2F10402D3
:1059000098BF00F801CB38BF00F8013B11F003034A
:1059100000F02580083AC0F0088051F8043B083AAE
:1059200051F804CBA0E80810F5E7121D5CBF51F850
:10593000043B40F8043BAFF30080D20724BF11F8CA
:10594000013B11F801CB48BF11F8012B24BF00F82F
:10595000013B00F801CB48BF00F8012B704710B5A0
:10596000203AC0F00B80B1E81850203AA0E8185057
:10597000B1E81850A0E81850BFF4F5AF5FEA027C18
:1059800024BFB1E81850A0E8185044BF18C918C087
:10599000BDE810405FEA827C24BF51F8043B40F828
:1059A000043B08BF7047D20728BF31F8023B48BF0D
:1059B00011F8012B28BF20F8023B48BF00F8012B4B
:1059C00070474FF000020429C0F0128010F0030C61
:1059D00000F01B80CCF1040CBCF1020F18BF00F8E2
:1059E000012BA8BF20F8022BA1EB0C0100F00DB891
:1059F0005FEAC17C24BF00F8012B00F8012B48BFEF
:105A000000F8012B70474FF0000200B51346944692
:105A10009646203922BFA0E80C50A0E80C50B1F106
:105A20002001BFF4F7AF090728BFA0E80C5048BF1A
:105A30000CC05DF804EB890028BF40F8042B08BFB8
:105A4000704748BF20F8022B11F0804F18BF00F8B4
:105A5000012B704710B5044610F0030F08BF11F07A
:105A6000030F40F015804FF0013E121FC0F20E8070
:105A700051F8043BA3EB0E0C2CEA030C1CEACE1CE1
:105A800008BF40F8043BF0D0A1F1040102F1040288
:105A9000521E08DB11F8013B002B00F8013BF7D147
:105AA0001146FFF78EFF204610BD00004FF0013C6D
:105AB00050F8042B51F8043B9A4221D1A2EB0C037D
:105AC000934313EACC1317D150F8042B51F8043B3D
:105AD0009A4215D1A2EB0C03934313EACC130BD1DA
:105AE00050F8042B51F8043B9A4209D1A2EB0C0365
:105AF000934313EACC13DBD04FF00000704700BF94
:105B0000D01A01BAB1FA81F101F0180122FA01F0BC
:105B1000CB40C1F12001DBB2C0B2C01A2CFA01F3B4
:105B2000D11A914311EAC311E6D1704710B500F0C4
:105B3000EBF8001D10BD00BFB9D50100004870474B
:105B40008019FF1F10B5FFF7F9FF006810BD10B5F1
:105B50000446FFF7F3FF046010BD2DE9F05F8246B5
:105B600015468B4600270AF10104B9460078302813
:105B700001D09DB113E014F8010B0127782803D060
:105B8000582801D045B10AE00DB1102D07D10027EA
:105B900014F8010B102502E0082500E00A25002674
:105BA000B0460EE005FB080005FB06F101271FFAD1
:105BB00080F801EB1046B6F5803F00D3B94614F8E3
:105BC000010B294600F0ADF80028EBDABBF1000F1D
:105BD00005D00FB1641E00E05446CBF80040B9F187
:105BE000000F06D0FFF7AAFF02210160C81EBDE822
:105BF000F09F48EA0640FAE70FB4002300B589B0E9
:105C00000CA900910B99CB60204B7B440693204B51
:105C10007B44079304236FF00042CDE901321D4A13
:105C20007A446B460892024600201EF0D8F809B06C
:105C30005DF814FB70B506464FF0FF3015460C4674
:105C4000324686B00091CDE90101694600200490FA
:105C500004A8FFF7D1FF03460498211825B108B125
:105C60000A4600E022462A6000280DD0002B02DD03
:105C70000098884208D03246081B69460094CDE956
:105C8000010404A8FFF7B8FF06B070BD31010000A1
:105C900049010000ED0000002DE9F04791460F4654
:105CA00080460446002614F8015B2DB1FFF73EFF45
:105CB0000068405DC007F6D12B2D02D02D2D18D0E5
:105CC000641E4A4639462046FFF747FF27B1396828
:105CD000A14201D1C7F800804FF0020471050BD535
:105CE0004042002803DDFFF729FF0460A007BDE85C
:105CF000F08746F48066E4E70028F8DAFFF71EFF35
:105D000004606FF00040F2E7004870478419FF1FFD
:105D100010B50446FFF70AFF0068005D00F00100BF
:105D200010BD3A2800D2303820F02002412A01D399
:105D3000A2F13700884201D34FF0FF30704742682C
:105D400042B1016811F8013B23B1521EC0E90012B3
:105D5000184670470121C160881E704742685AB1D9
:105D6000C368016843B983688B4205D0491E521C41
:105D7000C0E90012002070474FF0FF30704700006C
:105D80002DE9FF4F064689B00878FF2806D0491C48
:105D90002D2805D000244FF0000908E000200CE079
:105DA0000124F8E709EB8903491C00EB4309087853
:105DB000FF28F7D114B1C9F1000081461078002501
:105DC0002C46AA4629462D2801D02B2804D1521C46
:105DD0002D2813D0002082468B461078FF280FD044
:105DE0004FF0000C0A21521CA5FB017804FB018135
:105DF00005FB0C11C5194BEB0104EEE70120EAE7A6
:105E0000002108464FF00000BAF1000F02D000EB6D
:105E100080004008C0F38158B8F1010F01DD4FF058
:105E2000FF380C9809EB000755EA040009D04FF041
:105E3000020917F5FA7F0BDA4FEACA70C6E900B01B
:105E400012E04FEACA70C6E900B00DB0BDE8F08FAD
:105E5000B7F5FA7F0DDDF0487844D0E90010C6E9C7
:105E6000001040EACA707060FFF768FEC0F800904A
:105E7000EBE7391E02DAC8F1000200E0424600DA20
:105E8000794206A800F0D4F906AB93E8070003AB0B
:105E900083E8070044F23E005BEA040100905846A4
:105EA00004D144F21E012C465D460091210C0904E8
:105EB000014306D10099240444EA15442D04103905
:105EC000009104F07F41014306D10099240244EA85
:105ED00015642D020839009104F07041014306D188
:105EE0000099240144EA15742D01091F009104F062
:105EF0004041014306D10099A40044EA9574AD00E5
:105F0000891E009104F00041084304D100986D19E6
:105F10006441401E009042466846002FCDE901458D
:105F200003A902DD00F095FE01E000F06AFEBAF17F
:105F3000000F04460D4601D084F0004440F2FF7784
:105F400024F00040284303D0C4F30A50B84212D1D1
:105F5000FFF7F4FDC0F80090C4F30A50B8420AD12C
:105F6000AE487844D0E90010C6E9001004F00041C2
:105F70000843706069E7C6E9005466E72DE9FF4F02
:105F80001F464FF0000A4FF0FF38454691B0D7E961
:105F90000146CDF83CA0FFF7B7FEC0680168405C41
:105FA0001090B96912986D1C8847396A81468847F4
:105FB0000028F6D1B9F1FF3F0AD0002E24F4D064B6
:105FC00011DDB9F12B0F08D0B9F12D0F0BD102E083
:105FD000404615B03AE744F48064B96912986D1CE4
:105FE0008847761E8146600504A901D52D2000E072
:105FF0002B20002E01F1010B0DF130088DF810005F
:106000003FDDB9F1690F08D0B9F1490F05D0B9F1F9
:106010006E0F02D0B9F14E0F1CD13B4601A800957E
:1060200080E85002DDE912126FF002001DF0DBFE85
:10603000C11CCED10EE0B96912986D1C884781460B
:106040001398761E44F4007405600F98401C002ECF
:106050000F9016DDB9F1300FEDD0B9F1780F02D005
:10606000B9F1580F0DD10F9801280AD13B46CDE95F
:106070000054DDE91212001F02961DF0B2FEC11C91
:10608000A7D1109989453ED144F0800406E01399C8
:10609000681CAAF1010A44F400740860B9696D1C17
:1060A0001298761E884730288146F0D02BE0109950
:1060B000894505D1200603D4761E44F0800418E0FB
:1060C00048460FF0ACF808B3761E0DF123018B455E
:1060D00044F4007408D2A9F130000BF8010B20063B
:1060E00007D5AAF1010003E0200602D40AF101005D
:1060F0008246A00502D51399681C0860B9691298F8
:106100006D1C88478146002ED1DC53E0002E51DD06
:10611000B9F1650F02D0B9F1450F4BD1A00549D5B2
:10612000B9696D1C1298761E24F440748847002EBD
:1061300081460CDD2B2804D0B9F12D0F07D144F492
:106140008074B96912986D1C8847761E8146E005F7
:1061500001D52D2100E02B2108F8011BCDF800808E
:1061600021E0761E0DF13901884544F400740CD20B
:10617000A9F1300010F0FF0088F8000002D100996A
:10618000884509D908F1010806E0E00501D5244851
:1061900001E042F20F708246B96912986D1C88477F
:1061A000814613980560002E04DD48460FF037F84D
:1061B0000028D6D1F96912988847FF2053468BF8FA
:1061C000000088F8000000200A900B9004AA0CA997
:1061D0000AA8FFF7D5FDA00502D46FF00100F8E68C
:1061E00014F0240F0AD0E00714D13868DDE90A1250
:1061F000031D3B600068C0E900120BE00AA9684675
:1062000006F09AFFE00705D13868009A011D396051
:10621000006802602846DCE6CCEC0100C2EB01001D
:10622000F1D8FFFF0446AFF300802046FFF7A3F943
:106230002DE9F047814616468AB0324878440DC8A9
:106240008DE80D002F487844801C03AC0DC884E80D
:106250000D0041F69B303722014491FBF2F0A0F192
:10626000800502FB10141B3C02D56442012000E0B3
:106270000020DFF890A080460027FA44AAF1BA0A6D
:106280000DE0E00709D03246684607EB47010AEB0C
:10629000810100F0CAFC8DE8070064107F1C002C0F
:1062A000EFD1184F7F44A83F18E0E80714D007EB60
:1062B00004100DF1180A90E80E008AE80E00C0687C
:1062C000F04201D198190890324606A903A800F0BF
:1062D000ACFC03AB83E807006D10641C002DE4D117
:1062E00032466946B8F1000F03A802D000F075FCF1
:1062F00001E000F09AFCC9E90001C9F808200AB0E1
:10630000BDE8F08704E7010001491820ABBEFEE7B5
:10631000260002002DE9FF4F1F464FF03C0987B0D1
:106320004FF00042DDE9141001F10108DDF858A03A
:1063300002EA40500390002004908346054604463C
:106340000590B969461E08988847AAF1010A02908B
:10635000BAF1000F37DD02982E2815D01021FFF773
:10636000E0FC00282ADB4FF0010B0499014316D012
:10637000B9F1000F0BDB4A46C11700F0F2F90543F3
:106380000C43A9F1040905E00120059007E008B1DC
:1063900045F0010501200490059800B9361DB96942
:1063A000089808F101088847BBF1000FAAF1010A1B
:1063B0000290CDD00999C1F80080C9E702987028F1
:1063C00008D0502806D0F96908988847BBF1000F1B
:1063D00014D04FE0002002900120BBF1000F049088
:1063E00009D0B969089808F101088847AAF101099C
:1063F000B9F1000F07DCF969089888476FF00100D0
:106400000BB0BDE8F08F2B2804D02D280CD14FF015
:10641000FF300490B969089808F101088847A9F18C
:106420000109B9F1000FE6DD411CE4D00A21FFF7B4
:1064300078FC0028DFDB029908F1010801EB8101FB
:1064400000EB41000290B969089888470A21FFF7DC
:1064500068FC099AA9F10109B9F1000FC2F800809E
:1064600001DD0028E7DAF96908988847049902985D
:1064700000FB016655EA040004D004F04041090025
:1064800002D006E0039898E0A40044EA9574AD00B9
:10649000B61E04F00041080002D16D196441761E59
:1064A000159810F0240F03D04FF00B095C4803E05F
:1064B0004FF028096FF07D008246564507DAAAEBB7
:1064C00006018944B9F1410F01DD4FF04109012076
:1064D0000021A9F1010200F044F9024628400B46D0
:1064E0002140084301D0012100E00021501E02910B
:1064F00043F1FF3128402140084301D0012000E052
:1065000000200299834651EA0B014FD00021084632
:106510004FF00000039900F4400039B100EB800017
:106520004FF4400100EBD07001EA600080150128B3
:1065300002DD4FF0FF3000E013D0401C36D002984F
:1065400060B3BBF1000F0CD14A460120002100F0DE
:1065500008F928402140084301D0012000E0002034
:10656000E0B101204A46002100F0FBF80346401943
:106570000A4661412D1A8C4111D3B9F1400F09DD52
:10658000159810F0240F02D0AAF1340603E0AAF106
:10659000170600E0761C00254FF0004406E05B1E65
:1065A00042F1FF3220EA030521EA0204CAF10100A8
:1065B000B04206DA1B49039808430190002000907E
:1065C0000EE0039AC4F3D321E80A0A43164940EACD
:1065D00044500A433146CDE90002684606F054FEB5
:1065E000159810F0240F0BD01598C00715D13868F6
:1065F000DDE90012031D3B600068C0E900120CE0F9
:1066000002A8694606F098FD1598C00705D13868BC
:10661000029A011D3960006802604046F0E6000001
:1066200002FCFFFF0000F07F0000F03F2DE9FF4F6C
:1066300092461D4685B04FF00041DDE9124BDDE981
:1066400014727F1E01EA4B50414940F0FF4940EA75
:106650000108002122F020004928049102D04E2890
:1066600028D04CE03BA0012607C88DE80700A969A7
:106670000698641C88477F1E014606D41DF8060054
:1066800018B121F0200181420BD0E96906988847B2
:10669000032E34D0082E32D06FF0010009B0BDE8CF
:1066A000F08F761C032E01D0082EE0D1601CCAF8B2
:1066B0000000DCE7A9690698641C88477F1E2AD47D
:1066C00020F02000412826D1A9690698641C88473B
:1066D0007F1E20D420F020004E281CD1A9690698E6
:1066E000641C88477F1E48F4002849F48009CAF8D2
:1066F000004001D4282806D0E969069888475FEA57
:10670000CB7012D022E0A9690698641C88477F1ECE
:1067100001D4002803DAE96906988847BCE72928EC
:10672000F1D1641CCAF80040E9E71BF0240F07D040
:1067300028680499031D2B600068C0E9001805E073
:106740002868021D2A600068C0F800902046A5E76E
:106750000000F07F494E46494E4954590000000060
:106760007047B2F120030AD5C2F1200301FA02F109
:1067700020FA03F300FA02F041EA0301704700FA3D
:1067800003F14FF00000704720F07F4C80EA0300D7
:1067900023F07F47ACEB070303F57C5300F0004088
:1067A00003F1FF032DE980494FEA154B09B44FEA85
:1067B000144325EA0B4E24EA03480FF2042606EBA5
:1067C000132749083E785FEA320203FB0667C7F5E4
:1067D000000707FB06F64FEA54374FEAD64606F1A4
:1067E000020607FB066CCCF1005C4FEA1C472CEA62
:1067F000074C07FB06F40CFB06F504EB15464FEAC5
:10680000961634BF00204FF000404FEAD13706FB08
:1068100007FC4FEA1C4C0CFB0BF7D21B03FB0CF7DD
:1068200061EB07010CFB0EF7B0EB074072EB174270
:106830000CFB08F734BFA2EB0742B2EB074261EB57
:1068400017414FEA0C444FEA910706FB07FC4FEA59
:106850001C4C0CFB0BF7B0EBC74072EB573203FB41
:106860000CF734BFA2EBC742B2EBC74261EB573122
:106870000CFB0EF7B0EBC70072EB57720CFB08F77E
:1068800034BFA2EBC702B2EBC70261EB5771039FA3
:106890004FEA816141EA921104EBCC044FEAD1370F
:1068A0004FEA826206FB07FC42EA90124FEA8060E0
:1068B0004FEA1C4C0CFB0BF7D21B03FB0CF761EBF4
:1068C00007010CFB0EF7B0EB074072EB17420CFB15
:1068D00008F734BFA2EB0742B2EB074261EB174166
:1068E0004FEA8C554FEA910704EB9C2406FB07FC0A
:1068F0004FEA1C4C0CFB0BF7B0EBC74072EB573266
:1069000003FB0CF734BFA2EBC742B2EBC74261EB0B
:1069100057310CFB0EF7B0EBC70072EB57720CFB54
:1069200008F734BFA2EBC702B2EBC70261EB5771A5
:1069300015EB4C254FEA816141EA92114FEA8262E0
:106940004FEAD13742EA901206FB07FC44F10004FB
:106950004FEA80604FEA1C4C0CFB0BF7D21B03FB89
:106960000CF761EB07010CFB0EF7B0EB074072EB85
:1069700017420CFB08F734BFA2EB0742B2EB074209
:1069800061EB174115EB1C154FEA813141EA924149
:106990004FEA823242EA90424FEA80304FEA0C7668
:1069A00044F1000448EA03434EEA0B484FF0000E5E
:1069B000B2EB080C71EB030724BF624639464EEB7D
:1069C0000E0E4FF0000B0018524149414BEB0B0BE0
:1069D000B2EB080C71EB03077BF1000B24BF62469E
:1069E00039464EEB0E0E4FF0000B00185241494154
:1069F0004BEB0B0BB2EB080C71EB03077BF1000BBD
:106A000024BF624639464EEB0E0E51EA020718BF0C
:106A100046F0010616EB0E7655F1000254F1000126
:106A200003D5BDE88901BDE80088BDE88901B61934
:106A3000BDE80048524141EB0101A3F10103704759
:106A400080807F7E7D7C7B7A7978777676757473AB
:106A5000727171706F6E6E6D6C6C6B6A6A6968686A
:106A6000676666656464636362616160605F5F5E00
:106A70005E5D5D5C5C5B5B5A5A5959585857575676
:106A800056555555545453535252525151505050DB
:106A90004F4F4F4E4E4D4D4D4C4C4C4B4B4B4A4A2D
:106AA0004A49494948484847474747464646454571
:106AB00045444444444343434342424242414141AA
:106AC00046EA0646A3F570534FEA164646EA425692
:106AD0004FEAD22242EA415210B54FEAD121A3F146
:106AE000010300F017F820F0004000F1010C00F065
:106AF000004701EB00501146BCF5006F40EA07006B
:106B000000D210BD02484FF0000140EA070010BD5E
:106B10000000F07F002B26D4770021D01CB54FEA6F
:106B2000370703B44FF010004FF010014FF0000092
:106B30000FBC0BF1010BBDE81040BBF1010F08BF0A
:106B40005FEA170722BF12F1010211F101014FF0B4
:106B5000004143F1000300F0004043EA00007047A9
:106B6000F9D35708DAE746EA064613F1400F4FEA31
:106B700016461FDD13F1200FDFBF16430A46002122
:106B800020335B42C8D0C3F1200746EA064602FA2A
:106B900007F74FEA164646EA0706C3F1200722FA2E
:106BA00003F201FA07F721FA03F14FF0000342EA7A
:106BB0000702B1E746EA020646EA06464FEA1646EB
:106BC00046EA0106BCBF46EA0646360C4FF0000313
:106BD0004FF000024FF000019EE72DE9C0489346B8
:106BE00030B491E8380007C831EA400C48BF34EAB5
:106BF000430C03D5FFF7C8FDFFF78CFFF0BCBDE8E1
:106C000000882DE9C048934630B491E8380007C8A1
:106C100031EA400C48BF34EA430C03D5FFF7B4FD1A
:106C2000FFF74EFFF0BCBDE800882DE9C048934651
:106C300030B491E8380007C810F0804F08BF13F057
:106C4000804F03D100F019F8FFF764FFF0BCBDE8F6
:106C500000882DE9C048934630B491E8380007C851
:106C600010F0804F08BF13F0804F03D100F005F8FB
:106C7000FFF726FFF0BCBDE8008820F07F4780EAE0
:106C8000030023F07F4C07EB0C03A3F57C5300F0CB
:106C90000040A3F1FE0392F0000F00F0B38095F0E6
:106CA000000F00F077802DE901494FEA11404FEACB
:106CB000144621EA004800FB06FC24EA064708FBCC
:106CC00006F607FB08F800FB07F718EB06484CEB45
:106CD000164C4FEA124B18EB07484FEA15464CEB9F
:106CE000174022EA0B4E0BFB06FC25EA06470EFB7B
:106CF00006F607FB0EFE0BFB07F71EEB064E4CEBF2
:106D0000164C4FF000061EEB074E4CEB174B18EBE2
:106D10000B0840F1000018EB0E0B58EB000840F197
:106D200000008F1A4FF000013CBFC943661B14BF1F
:106D3000B5EB040C00213CBFC943F61B4FEA1744D6
:106D40004EEA8E0E27EA04454FEA1C4704FB076211
:106D50002CEA074C05FB07F70CFB05F604FB0CFCC3
:106D600016EB074642EB174216EB0C4642EB1C4271
:106D70001BEB060658EB0202414146EA9E0601D58E
:106D8000BDE80189B619524141EB0101A3F10103AC
:106D9000BDE801894FEA14454FEA114724EA054648
:106DA00021EA074C05FB07F406FB07F70CFB06F18D
:106DB00005FB0CFC11EB074144EB17444FEA12476B
:106DC00011EB0C4144EB1C4422EA074C05FB07F293
:106DD00006FB07F70CFB06F605FB0CFC16EB07465B
:106DE00042EB174216EB0C4642EB1C456A1854F175
:106DF000000148BF7047B619524141EB0101A3F1B0
:106E00000103704795F0000F37D04FEA11424FEA67
:106E1000144721EA024624EA074C02FB07F106FB6D
:106E200007F70CFB06F402FB0CFC14EB074441EBE8
:106E300017414FEA154714EB0C4441EB1C4125EA7E
:106E4000074C02FB07F506FB07F70CFB06F602FBF7
:106E50000CFC16EB074645EB174516EB0C4645EBCD
:106E60001C42121951F1000148BF7047B619524136
:106E700041EB0101A3F1010370474FEA14454FEACA
:106E8000114724EA054621EA074C05FB07F106FBFA
:106E900007F70CFB06F24FF0000605FB0CFC12EBAB
:106EA000074241EB174112EB0C4251EB1C4148BF2A
:106EB0007047921841EB0101A3F1010370470000F4
:106EC00001DF704701DFFEE7A848006872B6018B5A
:106ED00031B9416AC269D369994201D062B603DF10
:106EE00062B6704703DF7047FEE702DF704772B695
:106EF0001EF0040F0CBFEFF30881EFF309818969DD
:106F000011F8021C032905D100B500F01CF85DF84A
:106F100004EB16E0012902D1944800684AE00229F6
:106F20000FD192480068C1698A6842F001028A6004
:106F300000B54A680B6813605A6000F004F85DF809
:106F400004EB62B6704707B58948416811F0805F6D
:106F500008D1EFF31182A2F1100280F822204FF045
:106F60008051416007BD72B680480068EFF3098C1C
:106F700080498A78EFF311832CE9FC4FC369C3F889
:106F800014C0996A11F0020F14D0D3F834C07A4AB1
:106F900052F8041B4CF8041B52F8041B4CF8041B59
:106FA00052F8041B4CF8041BF1EE101A4CF8081BA5
:106FB0008CEC200A72B6416A0A688A4203D1896859
:106FC0000900F9D1FEE74162C261938C4383916A63
:106FD00011F0020F18D0836C9A4215D08264D2F857
:106FE00034C0654C5CF8043B44F8043B5CF8043B5B
:106FF00044F8043B5CF8043B44F8043B5CF8083B71
:10700000E1EE103ABCEC200AD2F814C0BCE8FC4F08
:1070100083F311888CF3098855484FF00061416073
:1070200062B6704772B600B5504B1B68198B01F100
:10703000010119834FF0000001B4EFF31182EFF367
:107040000581586B07B4EFF30880586308461A6B44
:1070500002B92FE090422DD8DA6A811A2ADB9A6BA6
:107060004FEAD1014FEA8101515801B922E00A6883
:1070700022B1824203D009690942F8D11AE0C868F6
:107080004A6808B462B6904772B608BC07BC586339
:1070900001BC198B491E1983DA69906A10F4805F6C
:1070A00006D129B9596A0968914218BFFFF74BFF09
:1070B00062B600BD9A6AE4E772B6F1B42B4B1B6866
:1070C000D3F834C00CF1100C5CF804EB2B4820F022
:1070D0000100CCF818009CE8FF005DF804CBACF18F
:1070E000040C2CE9FF00F0BC8CF3088862B67047F2
:1070F0001E480068C369996AD3F834C01E4A52F822
:10710000041B4CF8041B52F8041B4CF8041B52F8E7
:10711000041B4CF8041BF1EE101A4CF8081B8CEC05
:10712000200A70474FF08002D0E84F1F00290CBFA3
:10713000C0E8432F01E0002BF6D108467047EFF37B
:1071400009807047EFF30880704780F30888704724
:10715000EFF30380704762B6704772B670477046AF
:10716000704778467047EFF3148070474401FF1F63
:1071700000ED00E020ED00E034EF00E08970000059
:10718000F0B52DED088B85B00446207801280BD191
:10719000607840B96D48077803F039FD67F35F0008
:1071A000C0B28DF8100004AD2078022841D160787B
:1071B00020B1022815D0042839D125E019F050F962
:1071C00007461CF0ACFA41EC190B9FED610B53EC38
:1071D000102B1CF0B3F841EC180B1BF0C1FF03900F
:1071E00025E019F02BF907461CF099FA41EC190B30
:1071F0009FED570B53EC102B1CF0A0F841EC180B33
:107200001BF0AEFF039012E019F006F907461CF0E0
:1072100086FA41EC190B9FED4E0B53EC102B1CF032
:107220008DF841EC180B1BF09BFF039000BF00BFD3
:1072300003AD2078032818D1607870B902F042FFBE
:107240008DED030A9DED030AB5EEC00AF1EE10FACA
:1072500003D29FED410A8DED030A6078022803D125
:1072600002F0E4FE8DED030A03AD2078042848D136
:10727000607818B902F0F8FF8DED030A60780228F3
:1072800003D102F06BFD8DED030A6078042837D13D
:1072900032498968324A1268881A1CF057FA41EC60
:1072A0001B0B9FED300B53EC102B1CF047F841ECFF
:1072B0001A0B9FED2E0B53EC102B1CF097FA41ECA0
:1072C000190B9FED2C0B53EC102B1CF08FFA41EC9B
:1072D000180B1BF045FF03909DED030AB5EEC00AA5
:1072E000F1EE10FA08D39DED030ADFED240AB4EEA7
:1072F000E00AF1EE10FA03DD9FED170A8DED030AA7
:1073000003AD1FA103C9CDE9010120788DF8040068
:1073100060788DF8050028788DF8080068788DF879
:107320000900A8788DF80A00E8788DF80B0001AA0A
:107330000A21002001F01AFE06461EB1314612A0B5
:107340000CF09CFC05B0BDEC088BF0BD1015FF1FC8
:107350000000000000408F40000000007414FF1F78
:107360000000FF1F00000000C0FFDF400000000021
:1073700000000840000000000000244000FEFF461E
:107380000000FF00000000000A5472616E736D6916
:1073900074206572726F722E204572726F72204374
:1073A0006F64653A203078256C78000070B504462B
:1073B000207801280CD1607850B9207900F00101C3
:1073C000002003F02BFC2079C0F3400043490870F3
:1073D000207802282CD1261D607820B102280ED0FA
:1073E000042824D117E096ED000ADFED3D0A20EED7
:1073F000200ABDEEC00A394880ED050A00BF96EDAF
:10740000000ADFED370A20EE200ABDEEC00A33483D
:1074100080ED060A00BF96ED000ADFED310A20EE8E
:10742000200ABDEEC00A2D4880ED070A00BF00BF4C
:107430002078032851D1261D607850BBD6ED000A74
:10744000B0EE600A02F036FD0546E078FF2804D170
:1074500024484560012023494870E07828B9214834
:107460004560A9B200201BF0E1FCE078AA280BD10E
:107470001D48007830B11B484560A9B200201BF0C0
:10748000D5FC01E017484560E078552801D1154842
:1074900085606078022808D1D6ED000AB0EE600A57
:1074A00002F070FB0D49C1F8F4006078042814D193
:1074B00096ED000AF3EE040AB4EEE00AF1EE10FADB
:1074C00002DD40F6FF7506E0D6ED000AB0EE600A78
:1074D00002F0F0FC05460348856070BD1015FF1FE3
:1074E00000007A447414FF1F0D01FF1F70B506469B
:1074F0000C46002505F06CF81D48406C012101EB9D
:1075000010701C49096800FB01F5062E2AD2DFE83D
:1075100006F0030C15291E271548406C012101EBCC
:107520001070B5FBF0F020601EE01148406C0121A6
:1075300001EB1070B5FBF0F0206015E00C48406CDA
:10754000C0F30360401CB5FBF0F020600CE008487D
:10755000406CC0F30340401CB5FBF0F0206003E03A
:10756000256001E0012070BD00BF0020FBE70000A6
:1075700000800440C000FF1F0148007870470000F1
:107580003801FF1F1A48007800F0C00020B14028E1
:1075900012D0802829D118E01548407900F0400029
:1075A00040B91348007800F0040008B90320704780
:1075B0000020FCE70720FAE70D48407800F00200C1
:1075C00008B90120F3E70220F1E70948407900F00B
:1075D000400040B90648407800F0020008B9042095
:1075E000E5E70520E3E70620E1E70020DFE700000C
:1075F0000040064010B5034626480078C0EBC000A6
:10760000254C04EB80008069244CB0FBF4F082B27E
:1076100020480078C0EBC0001F4C14F8200000F098
:10762000C00078B1082A0DD3102A0BD82BB945F227
:1076300008205043C0F3CF3106E04FF42870504388
:1076400081B201E0012010BD0812154CA072E17258
:107650003BB92046007A00F0BE0040F08000207266
:1076600007E00F48007A00F0FE0040F0C0000C4C2C
:10767000207200BF0A48007A00F080000028F9D18B
:107680000748007A00F0200008B90020DBE71B2043
:10769000D9E700003801FF1F9441020040420F006B
:1076A000004006403CB50246C2EBC203FD4C34F834
:1076B000231001F0C0039BB1FB4B9B6B43F40073A1
:1076C000F94CA363F94B9B6C23F4E063F74CA36480
:1076D00001F0800323B12346DB6C23F4E063E36411
:1076E000F34B1B7A03F00E04C2EBC203ED4D05EB26
:1076F00083031B7A9C4255D0ED4B5B7803F001036A
:1077000063B9EB4B1B7A03F0F103C2EBC20405EB48
:107710008404247A2343E64C237243E0E44B1B7831
:1077200003F0010333B3E24B5B7803F0FE03E04C5C
:10773000637000BFDE4B9B7903F00103002BF9D18E
:10774000DB4B1B7A03F0F103C2EBC204D54D05EB12
:107750008404247A2343D64C237223465B7843F077
:107760000103637000BFD24B9B7903F00103002B30
:10777000F9D017E0CE4B5B7803F0FE03CC4C63707E
:1077800023461B7A03F0F103C2EBC204C54D05EB9F
:107790008404247A2343C64C237223465B7843F047
:1077A00001036370FFF7EEFE00BF00F00F03C14C52
:1077B00004EB031301F00F0433F8140001F00F037E
:1077C00083420ED1C2EBC203B64C04EB830353F8E1
:1077D000034F00949C88ADF804409B798DF80630E7
:1077E0000CE000F00F03B44C54F823301C680094F4
:1077F0009C88ADF804409B798DF8063000F00F03AB
:10780000082B7DD2DFE803F0040544696AB5DDDCAE
:1078100000BF9DF80030A64C237000BFA44B9B799D
:1078200003F01003002BF9D09DF8013003F0BF03E3
:107830009F4C647804F0400423439D4C63709DF892
:10784000023003F0E003E47804F01F042343984C73
:10785000E3709DF80630994C237001F480731BB1DE
:107860000123934C237302E00023914C23739DF872
:1078700003308F4C237101F4007323B123461B792D
:1078800043F0400323719DF80430894C6371D1E0CB
:107890009DF80030864C237000BF854B9B7903F028
:1078A0001003002BF9D09DF8013003F0BF03804C8A
:1078B000647804F0400423437D4C63709DF80630E7
:1078C0007E4C237001F0200333B100BF784B9B79CD
:1078D00003F00103002BF9D0ACE000BF9DF80130AC
:1078E00003F0BF03724C647804F040042343704CEF
:1078F00063709DF80630714C237001F4807300E0D2
:1079000097E01BB101236A4C237302E00023684C0B
:1079100023739DF80030664C237001F0800333B16F
:1079200000BF634B9B7903F00203002BF9D000BF2B
:107930005F4B9B7903F01003002BF9D19DF80230C7
:1079400003F0E0035A4CE47804F01F042343584C3E
:10795000E3709DF80330237101F4007323B12346D3
:107960001B7943F0400323719DF80430504C637140
:1079700060E09DF800304E4C23709DF8013003F01C
:10798000BF03647804F040042343494C63709DF8BE
:1079900006304A4C237001F480731BB10123444C20
:1079A000237302E00023424C237301F0800333B1C0
:1079B00000BF3F4B9B7903F00203002BF9D039E065
:1079C00000BF9DF806303D4C23700023384C2373D4
:1079D0009DF8003023709DF8013003F0BF036478F8
:1079E00004F040042343324C637001F00F03072B73
:1079F00010D1C2EBC2032B4C04EB83039B792C4CBC
:107A00002371C2EBC203274C04EB8303DB79284CC0
:107A1000637106E09DF80330254C23719DF8043016
:107A2000637100BF224B9B7903F04003002BF9D018
:107A300000E000BF00BF082829D2DFE800F0040DF5
:107A40000E051617182000BF00BF194B9B7903F0D5
:107A50000C03002BF9D11AE000BF00BF144B9B7937
:107A600003F00C03042BF9D111E000BF00BF00BFED
:107A70000F4B9B7903F00C03082BF9D107E000BFF3
:107A80000B4B9B7903F00C030C2BF9D100BF00BF0B
:107A900001F00F0383427FF488AE0923024CA364F4
:107AA0003CBD00009441020000800440009004406E
:107AB00000400640144102002042020000500640EF
:107AC00010B50446022C01D9022010BD3A48C078F6
:107AD00004280ED100203849487000BF374880780C
:107AE00000F004000028F9D000BF3348C078042813
:107AF000FBD04FF0A2703249486424B1012C06D06B
:107B0000022C0CD107E00020FFF7CCFD08E001209B
:107B1000FFF7C8FD04E00220FFF7C4FD00E000BF4E
:107B200000BFC4EBC400274901EB80004069244931
:107B300048642548006820F44020C4EBC401214A71
:107B400002EB8101C96808431F4908601C4840686E
:107B500020F44030C4EBC40102EB81010969084301
:107B600017494860204603F051F81848047000781F
:107B7000C0EBC000134901EB8000807800F00200E8
:107B8000C0B140200C49487010480078C0EBC000DC
:107B90000C4901EB8000807800F0040028B1064811
:107BA000407840F080000449487000BF0248C07827
:107BB0000428FBD1002088E700E0074000D0074000
:107BC0000080044094410200007004403801FF1F0F
:107BD00010B50446204618F0B0FC04A10748FDF794
:107BE000DFFD2146054803F0A9FF10BD43524320A5
:107BF000636865636B206572726F7200D014FF1F3B
:107C000010B502460B460020002100BF04E0545C82
:107C10000444E0B24C1CE1B29942F8DB10BD000014
:107C20001CB50027ABE056480078564909788842D1
:107C300002DA5448077814E051480078514909782D
:107C4000884201DD14270CE000231A464FF0004162
:107C50004D4810F0F3FF10B14CA00CF00FF849485C
:107C600007787FE046480078142190FBF1F201FB91
:107C70001200434908704A48097810F8310000287A
:107C800016DD47483E49097800EBC100807838B1DD
:107C900043493B4A127801EBC200FFF771FA54E006
:107CA0003F49374A127801EBC200FFF77FFB4CE0F7
:107CB0003B483349097800EBC100807800282DD07B
:107CC00037492F4A127801EBC201487803F04CFF84
:107CD000064634A103C9CDE9000131482849097895
:107CE00010F831008DF800002D482549097800EB87
:107CF000C10040788DF80100F0B28DF80400300A20
:107D00008DF805006A460A21002001F02FF904468B
:107D10001CB1214625A00BF0B1FF16E02048184900
:107D2000097800EBC10001791D48154A127800EB73
:107D3000C200407901EB00251949114A127801EB84
:107D4000C2014878294604F075F80D480078401CB7
:107D50000B49087008460078142802D100200870EA
:107D600005E000BF06480078B842FFF47BAF00BFD3
:107D700004480078142802D100200249087052E714
:107D80000901FF1F0801FF1F1416FF1F0A45766532
:107D90006E742057616974206661696C65640000C7
:107DA0003816FF1F0000FF00000000000A54726137
:107DB0006E736D6974206572726F722E20457272D7
:107DC0006F7220436F64653A203078256C7800002C
:107DD0002DED068B88B09FED240AB0EE408A9FED12
:107DE000220A10EE104A3DE002F09EF8B0EE408A02
:107DF0001E4890ED000AB4EEC08AF1EE10FA2EDBB8
:107E000001F0ACFF10EE104A002018F096FB20465F
:107E10001BF00AFF41EC190B18EE100A1BF004FFCF
:107E200041EC1A0B8DED009B53EC1A2B10A103A80B
:107E30000DF0BEF9002103A803F080FE0EE0002142
:107E400008461AF0F3FF0021084602F0E7FE322050
:107E500012F0E8FD1921002001F05EFEEFE764203A
:107E600012F0E0FDC0E70000000000001400FF1F5A
:107E70004C4456206F7574206F662072616E676582
:107E8000252E336620252E336600000030B50446CB
:107E90000D46A068A84201D2002030BD29462068C6
:107EA00002F000FF2060A068401BA0600120F4E702
:107EB0000FB408B502A810F0F1FC58B1694602A849
:107EC00010F0C4FC18B1009801B05DF814FB04A0D8
:107ED0000BF0D4FE07A00BF0D1FE0020F4E7000069
:107EE00063616E206E6F74207265616420726177C9
:107EF0002E00000063616E206E6F7420636F6E76DB
:107F00006572742076616C75652E00003DE01F4837
:107F10004078012835D1002018F054FA04461B4857
:107F20004068A04211DD643418484068A04204DC77
:107F300016484468002015494870A1B200201AF084
:107F400075FF002018F03EFA044610484068A04231
:107F500016DA643C0D484068A04204DB0B484468D4
:107F600000200A494870A1B200201AF05FFF3CB916
:107F70000648007820B900220A21042001F0DAFD29
:107F800000BF4FF47A7012F04DFDC0E77414FF1F6C
:107F900010B52DED0E8B00240121084602F03EFEA7
:107FA000294800681BF040FE41EC1A0B2748006886
:107FB0001BF0CCFB41EC1E0B9FED250B53EC102B63
:107FC0001BF0BCF941EC1D0B9FED230B53EC102B68
:107FD0001BF00CFC41EC1C0B9FED210B53EC102B08
:107FE0001BF0F0F841EC1B0B53EC1A2B1BF0A6F91D
:107FF00041EC190B9FED1C0B53EC102B1BF0F6FB07
:1080000041EC180B1BF05EFB0446A1B200201AF0F5
:108010000DFF4FF47A7012F005FD01F09FFE144839
:1080200080ED000A9FED130A01F044FF0446124858
:108030008460A1B200201AF0F9FE0021012002F0B4
:10804000EDFDBDEC0E8B10BD2400FF1F0400FF1FD3
:1080500000000000E0FFEF400000000000000840CA
:108060007B14AE47E17A743F0000000000FEAF4091
:108070000C00FF1F000000007414FF1F0246074899
:1080800050F8220010F81100044B53F8223003EB93
:1080900041035B7800EB032080B270474040020050
:1080A000016829B99149C96A41F480518F4AD16266
:1080B0000168012905D18D49C96A41F400518B4AF3
:1080C000D162017911B101291ED10EE0884A0168FF
:1080D00052F8211091F8211041F02001844B0268E0
:1080E00053F8222082F821100FE0814A016852F8EB
:1080F000211091F8211021F020017D4B026853F8E6
:10810000222082F8211000E000BF00BF417931B188
:10811000012913D0022938D003297DD15EE0744AA9
:10812000016852F8211091F8221021F00101704BE2
:10813000026853F8222082F822107BE06C4A016822
:1081400052F8211091F8221041F00101684B0268A9
:1081500053F8222082F822101A46016852F82110A2
:1081600091F8221021F00601026853F8222082F8CB
:1081700022101A46016852F8211091F82210026864
:1081800053F8222082F8221054E0594A016852F82C
:10819000211091F8221041F00101554B026853F86B
:1081A000222082F822101A46016852F8211091F814
:1081B000221021F00601026853F8222082F82210D2
:1081C0001A46016852F8211091F8221041F002017C
:1081D000026853F8222082F822102BE0444A0168FA
:1081E00052F8211091F8221041F00101404B026831
:1081F00053F8222082F822101A46016852F8211002
:1082000091F8221021F00601026853F8222082F82A
:1082100022101A46016800E00BE052F8211091F894
:10822000221041F00401026853F8222082F8221043
:1082300000E000BF00BF817911B101291ED10EE01D
:108240002B4A016852F8211091F8211021F04001C9
:10825000274B026853F8222082F821100FE0244AAD
:10826000016852F8211091F8211041F04001204B93
:10827000026853F8222082F8211000E000BF00BFFE
:108280001B4A016852F8211091F8201021F00101D9
:10829000174B026853F8222082F820101A46016812
:1082A00052F8211091F8201021F00201026853F8D1
:1082B000222082F820101A46016852F8211091F805
:1082C000201021F00401026853F8222082F82010C7
:1082D0001A46016852F8211091F8211041F08001EE
:1082E000026853F8222082F8211070470080044071
:1082F0004040020030B50346002011E011F8104064
:10830000094D55F8235005F8104031F81040240A63
:10831000054D55F8235005EB40056C70441CE0B248
:108320009042EBDB30BD000040400200002105E040
:10833000002200E0521CFF2AFCDB491C8142F7DBD3
:10834000704710B516F06AFC10BD0146886808B980
:10835000012070470020FCE710B503460C46184684
:1083600013F0B4F99868642800D310BD03F10C0031
:10837000596844545868401C6421B0FBF1F201FB79
:10838000120058609868401C986000BFEDE700003C
:1083900038B50546009509200849C8719DF80200C6
:1083A00088719DF8010048719DF80000087172B64F
:1083B00001F068FA044662B6204638BD000002406B
:1083C0002DE9F84380460C469146CDF80080072001
:1083D0002049C871062802D0072804D101E00425ED
:1083E00006E0082504E01CA00BF048FC042500BFB3
:1083F00000BF00272AE09DF80200164988719DF809
:10840000010048719DF800000871E078C872A078FA
:1084100088726078487220780872082D07D1E07958
:10842000C873A079887360794873207908730098BD
:10843000284400902C4472B601F024FA064662B635
:1084400016B10420BDE8F883781987B24F45D2D31E
:108450000020F7E700000240464C4153483A206EA6
:108460006F2070726F6772616D20636D6420666F3C
:10847000756E64210D0A0000F8B506460C461546D7
:10848000304606F02DFC0090009808B90B48F8BD66
:108490007F2C02D90948401CF9E70099803101EB93
:1084A0000410016821F0706101600099803101EBD6
:1084B00004100168294301600020E8E70B02010075
:1084C0001CB50446204606F00BFC0190019808B943
:1084D0001A481CBD00220121204606F00BFC00902A
:1084E0009DF8000010B91548001DF2E70122032194
:1084F0009DF8000011F0BCFA10B11048001DE8E72B
:1085000000220221204606F0F5FB00909DF80000B5
:1085100010B90A48001DDCE7012203219DF8000084
:1085200011F0A6FA10B10548001DD2E70199081D07
:10853000496841F4404101600020CAE70B02010094
:108540002DE9FF4F89B00E4615461C46DDF85880D0
:10855000002007900690059004900390099806F07B
:10856000BFFB0890089818B995480DB0BDE8F08F8A
:108570000898006800F0004050B94FF0004008999A
:10858000086000BF0898006800F480100028F9D047
:10859000099800F091FC10B189481030E5E700BF60
:1085A0000898006800F080700028F9D041460998CA
:1085B00000F0CEFB0898406800F4005038B106F097
:1085C000A5FF8146012106F099FF804606E006F0EE
:1085D0009DFF8146072106F091FF80464FF47A7097
:1085E0004443002E7DD1002DFCD1B8FBF4FCBCF13E
:1085F000070F02D27248C01CB7E70294002219216B
:108600001FE0BCFBF1F003900398B0F5807F17D812
:1086100003984843604501D10A4614E00398B8FB2B
:10862000F0F0B0FBF1F3A34201D9181B00E0E01A0F
:108630000190DDE90109484502D2019802900A46FD
:10864000491E0829DDD200BF082A68D30398B0F577
:10865000807F64D8A2F1080040080690069802289E
:1086600001D202200690082A01D1012000E00698DC
:1086700007900798101ADDF81890A0EB0900401E2B
:1086800005900798042801D2079800E00420049080
:10869000DDF8209009F10400D9F804904FF6787ABB
:1086A00009EA0A09C0F80090DDF8209009F10400F9
:1086B000DDF81490A9F1010909F00709DDF810A00F
:1086C000AAF1010A4FF4400B0BEA8A5A49EA0A0957
:1086D000DDF81CA0AAF1010A4FF4601B0BEACA4A9C
:1086E00000E020E049EA0A09DDF818A0AAF1010A31
:1086F0004FF4E02B0BEA0A4A49EA0A09DDF80CA01C
:10870000AAF1010A4FF07F4B0BEA0A6A49EA0A090B
:10871000D0F800A049EA0A09C0F8009002E0284811
:10872000C01C22E733E0C6F30240079006F00700C2
:108730000590C5F302400690C5F301200490E8B20D
:1087400003900899081D49684FF67872114001603E
:108750000899081D059901F007014FF44003049A98
:1087600003EA825211434FF46013079A03EAC242AC
:108770001143DB10069A03EA024211434FF07F4394
:10878000039A03EA026211430268114301600898E8
:10879000016841F07F0101600A4808990861089961
:1087A000486108998861002706E000210898803018
:1087B00000EB071001607F1C0F2FF6D90020D4E6D4
:1087C0000B020100FFFF03002DE9FC4781460C4628
:1087D00015461E46DDE90B8A0A9F484606F080FAD8
:1087E0000190019810B94248BDE8FC877F2C02D95E
:1087F0003F48401CF8E7082E02D93D480830F3E70F
:10880000FF2F03D14FF00060009006E017B9002061
:10881000009002E036480A30E6E7009840EA064059
:108820000090DDE90010803000EB04100160B8F129
:10883000FF0F25D10199803101EB0410016841F44B
:1088400000110160FF2F07D10199803101EB041065
:10885000016841F4800101600199803101EB04114C
:10886000081D496801F0604101600199803101EB08
:108870000411081D496825F060421143016022E09F
:10888000B8F1000F1CD10199803101EB041001688F
:1088900021F4C00101600199803101EB0411081D30
:1088A0004968144A114001600199803101EB0411BB
:1088B000081D4968D24302EA85421143016002E083
:1088C0000B48093090E7BAF1FF0F07D1214648461F
:1088D00000F0C8F850B10648001D85E7214648461B
:1088E00000F08EF810B10248401D7DE700207BE7C4
:1088F0000B020100FFFF03E02DE9FC4107460C4697
:1089000016464FF00008384606F0EAF90190019843
:1089100010B91048BDE8FC817F2C02D90D48401CDD
:10892000F8E722460021384606F0E4F900909DF869
:10893000000010B90748801DECE731469DF80000A3
:10894000019A08F075FB054615B911F047FE8046FF
:108950004046DFE70B0201002DE9FC4105460E46CB
:108960000027284606F0BCF90190019810B90E487E
:10897000BDE8FC8100220221284606F0BBF90090E8
:108980009DF8000010B90848801DF1E731469DF8B8
:108990000000019A08F04CFB044614B911F01EFEC9
:1089A00007463846E4E700000B0201002DE9FC41D0
:1089B00005460E460027284606F092F901900198D8
:1089C00010B90E48BDE8FC8100220121284606F0BE
:1089D00091F900909DF8000010B90848801DF1E75A
:1089E00031469DF80000019A08F022FB044614B9B4
:1089F00011F0F4FD07463846E4E700000B020100E1
:108A00007CB505460C46284606F06AF901900198A7
:108A100008B913487CBD7F2C02D91148401CF9E7E6
:108A2000019901F12800896A0122A2409143016065
:108A300022460021284606F05DF900909DF80000CE
:108A400010B90748401DE5E7002203219DF800000A
:108A500011F00EF810B10248401DDBE70020D9E705
:108A60000B0201007CB505460C46284606F038F995
:108A70000190019808B913487CBD7F2C02D9114898
:108A8000401CF9E722460021284606F033F9009001
:108A90009DF8000010B90B48001DEDE701220321ED
:108AA0009DF8000010F0E4FF10B10648001DE3E758
:108AB000019901F12800896A0122A2401143016055
:108AC0000020D9E70B02010038B505460C462846C0
:108AD00006F006F90090009808B9074838BD7F2CC9
:108AE00002D90548401CF9E70098803000EB0410DB
:108AF00000680020F2E700000B0201002DE9FF4FA3
:108B000087B00C4691469A46DDE914B800200490DF
:108B1000079806F0E5F80690069818B98B480BB050
:108B2000BDE8F08F7F2C02D98848401CF7E70698F3
:108B3000803000EB0410006800F470200190019870
:108B4000000C0390BAF1000F0BD0BAF1FF0F11D156
:108B50000698803000EB0410406820F060400290DE
:108B60000BE00698803000EB04104068C0F38A40A8
:108B7000029002E075480930D1E700BF06988030C6
:108B800000EB0410006800F07060059006988030DB
:108B900000EB041000F108070598B0F1806F14D1C4
:108BA0000699803101EB0410016821F070610160C9
:108BB0000699803101EB04100168019A42F080624D
:108BC000114301606148801F04900598A0B906997F
:108BD000803101EB0410016821F070610160069999
:108BE000803101EB04100168019A42F08062114368
:108BF00001605648801F04900598B0F1007F2FD186
:108C00004646002509E005F00300C0F1030005F029
:108C100004010844385C70556D1C03988542F2D3FA
:108C200000210698803000EB0410816006988030A7
:108C300000EB0410C1600699803101EB041001685B
:108C400021F0706101600699803101EB0410016828
:108C5000019A42F08062114301600020049068E0B4
:108C60000598B0F1C06F30D14646002509E005F007
:108C70000300C0F1030005F004010844385C70559E
:108C80006D1C03988542F2D300210698803000EBDA
:108C9000041081600698803000EB0410C1600699D2
:108CA000803101EB0410016821F0706101600699C8
:108CB000803101EB04100168019A42F08062114397
:108CC00001602248801F049033E00598B0F1807F56
:108CD0002FD14646002509E005F00300C0F103004E
:108CE00005F004010844385C70556D1C03988542FA
:108CF000F2D300210698803000EB041081600698C2
:108D0000803000EB0410C1600699803101EB041043
:108D1000016821F0706101600699803101EB041057
:108D20000168019A42F08062114301600748C01F48
:108D30000490169808B9069880680398CBF800004C
:108D40000298C9F800000498E9E600000B0201004F
:108D500038B505460C46284605F0C2FF009000983D
:108D600008B90C4838BD0C48844206D10099081D4A
:108D7000496841F4005101600AE034B90099081DC6
:108D8000496821F40051016002E002480F30E9E730
:108D90000020E7E70B020100008793037CB505463E
:108DA0000C4600200090284605F09AFF019001989B
:108DB00008B929487CBD072C46D2DFE804F004132B
:108DC0001A21282F3F000198006800F08070B0F150
:108DD000807F06D1284600F0AFF810B11E480E3053
:108DE000009035E00199081D496841F008010160D3
:108DF0002EE00199081D496841F02001016027E03B
:108E00000199081D496841F48051016020E00199F1
:108E1000081D496821F40041016019E001980168CA
:108E200041F0A04101600198006800F08070B0F14D
:108E3000807F02D008481330009009E00198016853
:108E400041F00041016003E003480D30009000BF95
:108E500000BF0098AEE700000B02010038B50546E0
:108E60000C46284605F03CFF0090009808B91048D1
:108E700038BD0098016841F0B041016000BF009822
:108E8000006800F080700028F9D00A4800EA8440A9
:108E9000009908610098016821F08041016000BFDD
:108EA0000098006800F080700028F9D100BFDFE76B
:108EB0000B0201000000FC1F38B50446204605F0F7
:108EC0000FFF0090009808B91A4838BD0098006854
:108ED00000F4801058B10098016821F00041016051
:108EE00000BF0098006800F480100028F9D14FF00E
:108EF00000700099086000BF0098006800F00070E2
:108F00000028F9D10098016841F0A0410160009863
:108F1000006800F08070B0F1807F06D10098006892
:108F200000F00060B0F1006F02D002480C30CCE7D6
:108F30000020CAE70B02010038B50446204605F0C0
:108F4000CFFE0090009808B9074838BD0098016826
:108F500021F05041016000BF0098006800F080706F
:108F60000028F9D100BFF0E70B0201002DE9FC4118
:108F700007460E461446384605F0B2FE01900198A9
:108F800010B92148BDE8FC817F2E02D91E48401C43
:108F9000F8E70199803101EB0610016841F00061AA
:108FA00001600198803000EB0610006800F470202A
:108FB00000902546E878A97840EA0120697840EADF
:108FC0000140297840EA01610198803000EB0610E9
:108FD0008160E879A97940EA0120697940EA014095
:108FE000297940EA01610198803000EB0610C160E8
:108FF0000199803101EB06100168009A42F040624D
:10900000114301600020BDE70B02010038B50446A2
:10901000204605F065FE0090009808B9024838BD6A
:10902000009880680020FAE70B0201002DE9FC5F40
:1090300082460F4616469B460C9D504605F050FE54
:109040000190019810B92848BDE8FC9F7F2D02D9F6
:109050002548401CF8E7082E02D923480830F3E7DA
:109060000198803000EB051000680090009800F433
:109070008010B0F5801F02D11B480B30E4E7009848
:1090800000F00060B0F1006F28D10199803101EB50
:109090000510016821F0706101600198803000EBDB
:1090A000051000F10809B84600240BE018F8040088
:1090B00004F00301C1F1030104F00402114409F8B2
:1090C0000100641CB442F1D30199803101EB051019
:1090D000016846F020621143016002E00248401C32
:1090E000B2E70020B0E700000B0201002DE9F041DB
:1090F00004460E4615461F464FF00008062D34D292
:10910000DFE805F0030B131B232B304615F00DF899
:10911000C100012000FA01F828E0304615F005F8FA
:10912000C100022000FA01F820E0304614F0FDFFF3
:10913000C100042000FA01F818E0304614F0F5FFF1
:10914000C100102000FA01F810E0304614F0EDFFE5
:10915000C100202000FA01F808E0304614F0E5FFD5
:10916000C100402000FA01F800E000BF00BF012F5D
:109170000AD10B4850F82400406E40EA0800084924
:1091800051F82410486609E0054850F82400406E64
:1091900020EA0800024951F824104866BDE8F08131
:1091A000BC3F020070B51346244C54F82040A4681C
:1091B0005C4342F21075B4FBF5F2204C54F82040A9
:1091C000646E04F001347CB30C4601EBD4756D1071
:1091D000A1EB450585B10026184C54F820400C340D
:1091E0004D1E04EBC5046660144C54F820400C344A
:1091F00004EBC10462600FE00025104C54F82040DD
:109200000C3404EBC10465600C4C54F820400C3461
:109210004D1C04EBC50462604FF0FF34074D55F858
:109220002050C5F8984007E0FFE7044C54F8204070
:109230000C3404EBC104626070BD0000BC3F02004E
:1092400010B512B1012A3AD11CE01E4B53F8203060
:109250000C3353F8313023F004041A4B53F8203008
:109260000C3343F83140174B53F820300C3353F88C
:10927000313043F00804134B53F820300C3343F8DB
:1092800031401DE00F4B53F820300C3353F8313090
:1092900043F004040B4B53F820300C3343F83140B7
:1092A000084B53F820300C3353F8313023F00804C6
:1092B000044B53F820300C3343F8314000E000BF3A
:1092C00000BF10BDBC3F02002DE9F74F82B08946B8
:1092D0009046002702AC00250DE02388C3F38212DC
:1092E000C3F344232B44D9B22378C3F3C20001F063
:1092F000E3FC681CC5B22068C0F38430A842ECDCF3
:109300004FF6FF7B01A90220FEF7F0F80198B0FBB1
:10931000F8F05946B0FBF1F60198B0FBF8F0B0FB5D
:10932000F6F0B0F5803F00D3761C00251BE001204D
:10933000A840301A03D50120A840801B02E001207C
:10934000A840301A58450CD22F460120A840301AA8
:1093500003D50120A840801B02E00120A840301A5C
:109360008346681CC5B2072DE1DB0120B840B0423E
:1093700001DA781CC7B2072F00DD07270120B840AB
:109380000199B1FBF0F0B0FBF8F0A0F1010A2178EF
:1093900001F007003A46514603F068FDB9F1000FAD
:1093A00006D0B9F1010F0DD0B9F1020F1ED113E0B3
:1093B0002268C2F3C441227802F00700002200F0C4
:1093C00027F814E02268C2F3C441227802F00700B3
:1093D000022200F01DF80AE02268C2F3C44122789C
:1093E00002F00700032200F013F800E000BF00BF06
:1093F0002268C2F3C441227802F0070041F28832A9
:10940000FFF7D0FE207800F0070005B0BDE8F08F30
:1094100070B504460D461646062E7DD2DFE806F0EE
:10942000035BF7F8A2F5FE4850F82400406D20F0E9
:109430000100FB4951F824104865F94850F8240010
:10944000D0F8800020F00100F54951F82410C1F84F
:109450008000F34850F82400006820F02000F04914
:1094600051F824100860EE4850F824000C3050F8F1
:10947000350040F03001EA4850F824000C3040F844
:109480003510002229462046FFF7DAFE00231A464F
:1094900029462046FFF72AFE0023012229462046BE
:1094A000FFF724FE0023022229462046FFF71EFE76
:1094B0000023032229462046FFF718FE002304223A
:1094C00029462046FFF712FE0023052229462046A2
:1094D000FFF70CFED2E1D24850F82400406D20F096
:1094E0000100CF4951F824104865CD4850F82400B8
:1094F000D0F8800020F00100C94951F82410C1F8CB
:109500008000C74850F82400006840F02000C4499B
:1095100051F82410086000E0AFE100231A46294604
:109520002046FFF7E3FD0023012229462046FFF7EE
:10953000DDFD0023022229462046FFF7D7FD002348
:10954000032229462046FFF7D1FD002304222946A5
:109550002046FFF7CBFD0023052229462046FFF7D2
:10956000C5FD8BE1AE4850F82400D0F8800020F013
:109570000100AB4951F82410C1F88000A84850F808
:109580002400406D20F00100A54951F824104865E1
:10959000A34850F82400006820F02000A04951F8AA
:1095A000241008609E4850F824000C3050F8350014
:1095B00020F030019A4850F824000C3040F8351063
:1095C00000231A4629462046FFF790FD002301227A
:1095D00029462046FFF78AFD00230222294620461D
:1095E000FFF784FD0023032229462046FFF77EFD76
:1095F0000023042229462046FFF778FD0023052298
:1096000029462046FFF772FD38E1E3E000E070E014
:10961000834850F82400D0F8800020F001008049F1
:1096200051F82410C1F880007D4850F824000068EB
:1096300020F020007A4951F824100860784850F84A
:109640002400406D40F00400754951F8241048652D
:10965000734850F82400406D40F00100704951F803
:10966000241048650123002229462046FFF73EFDCD
:1096700001231A4629462046FFF738FD002302221F
:1096800029462046FFF732FD0023032229462046C3
:10969000FFF72CFD0123042229462046FFF726FD73
:1096A0000023052229462046FFF720FD5C4850F89C
:1096B00024000C3050F8350040F03001584850F884
:1096C00024000C3040F83510012229462046FFF7CF
:1096D000B7FD0320524951F824108865504850F8CE
:1096E0002400806D40F080004D4951F824108865B9
:1096F000C4E04B4850F82400D0F8800020F001006E
:10970000474951F82410C1F88000454850F824001A
:10971000006820F02000424951F8241008604048B9
:1097200050F82400406D40F004003D4951F82410E9
:1097300048653B4850F82400406D40F0010038492E
:1097400051F8241048650123002229462046FFF7DE
:10975000CDFC0023012229462046FFF7C7FC002349
:10976000022229462046FFF7C1FC00230322294696
:109770002046FFF7BBFC0123042229462046FFF7C1
:10978000B5FC0023052229462046FFF7AFFC2448FC
:1097900050F824000C3050F8350040F030012048DB
:1097A00050F824000C3040F835100022294620469D
:1097B000FFF746FD03201A4951F824108865184820
:1097C00050F82400806D40F08000154951F82410B5
:1097D000886553E0124850F82400D0F8800040F02B
:1097E00001000F4951F82410C1F880000C4850F8CE
:1097F0002400006820F02000094951F82410086076
:10980000074850F82400406D40F00400044951F826
:1098100024104865024850F82400406D02E0000022
:10982000BC3F020040F00100154951F82410486582
:109830000123002229462046FFF758FC002301227D
:1098400029462046FFF752FC0023022229462046E3
:10985000FFF74CFC0023032229462046FFF746FC75
:109860000023042229462046FFF740FC002305225E
:1098700029462046FFF73AFC00E000BF00BF70BD5C
:10988000BC3F020030200A4908708020087000BFE9
:109890000748007800F080000028F9D004480078DC
:1098A00000F0310008B1042070470020FCE7000000
:1098B0000000024010B54FF496720021314801F0CB
:1098C0004FFD304890F8FF0011285AD07F202D49D5
:1098D0004870002081F8DB0081F8DA00102081F860
:1098E000DF00272081F8DE00D020C87107208871B2
:1098F0000420487200200872C8728872FF2088769F
:10990000C87608774877E820487403200874002058
:10991000C8748874112081F8FF004FF4FE20FEF710
:1099200037FD4FF4805217494FF4FE20FEF748FDF3
:109930002D217B2003F0FEF901217D2003F0FAF9AF
:109940000121192003F0F6F900217C2003F0F2F93F
:109950009FED0D0A702003F025FAB2EE040AD5201F
:1099600003F020FAB2EE0E0ACD2003F01BFAB7EE98
:10997000000A562003F016FA9FED040A5A2003F05D
:1099800011FA10BD4803FF1F0000704200000000E4
:1099900010B504466078052854D2DFE800F00313C0
:1099A0002333430021792078002201F0DDF9217969
:1099B0002078002201F0ACF921792078002200F013
:1099C00049F840E021792078022201F0CDF921798F
:1099D0002078002201F09CF921792078002200F003
:1099E00039F830E021792078012201F0BDF92179A0
:1099F0002078002201F08CF921792078002200F0F3
:109A000029F820E021792078012201F0ADF92179AF
:109A10002078012201F07CF921792078012200F0E0
:109A200019F810E021792078002201F09DF92179C0
:109A30002078002201F06CF921792078012200F0D1
:109A400009F800E000BF00BF21792078012201F071
:109A500033F910BD10B5114B9B6B114C54F82040DD
:109A600023430E4CA363012A0BD10E4B53F8203035
:109A70005B6901248C4023430A4C54F82040636105
:109A80000AE0084B53F820305B6901248C40A34363
:109A9000044C54F82040636110BD00000080044075
:109AA00024400200FC3F02007CB504460D461646E9
:109AB000E0B28DF800008DF8016001956846FFF76F
:109AC00067FFE0B27CBD000002460C4850F822005F
:109AD0004069C84000F0010038B1084850F8220041
:109AE0000068C84000F001007047044850F82200A8
:109AF0000069C84000F00100F6E70000FC3F0200EA
:109B00000246044850F822000069C84000F00100F5
:109B100070470000FC3F0200054A52F82020D2683E
:109B200001238B401A43024B53F82030DA60704710
:109B3000FC3F020010B5104B9B6B104C54F82040BA
:109B400023430D4CA3635AB10D4B53F820305B688F
:109B500001248C4023430A4C54F8204063600AE0FF
:109B6000074B53F820309B6801248C402343044C5E
:109B700054F82040A36010BD00800440244002003F
:109B8000FC3F02000020DFED0A0A70EE600A9FED44
:109B9000091A60EE810AF0EE081A80EEA11ADFEDD4
:109BA000060AC1EE201AFCEEE10A10EE900A704798
:109BB000C5204A4100FEFF46FA7E7E4110B52DEDDC
:109BC000108B86B004469FED3D0AB0EE408A3C48BB
:109BD00000681AF029F841EC190B3A48006819F0AE
:109BE000B5FD41EC1E0B9FED380B53EC102B19F01B
:109BF000A5FB41EC1D0B9FED360B53EC102B19F020
:109C0000F5FD41EC1B0B344800681AF00DF841ECEF
:109C10001D0B204619F09AFD41EC1F0B9FED2F0BF9
:109C200053EC102B19F08AFB41EC1E0B53EC1D2B4F
:109C300019F0DCFD41EC1C0B53EC1B2B19F00AFF57
:109C40009FED280B53EC102BCDE900019DED000B8F
:109C500051EC100B19F0FEFE9FED240B53EC102B72
:109C6000CDE902019DED020B51EC100B19F0BEFD88
:109C700041EC1A0B53EC192B19F0A4FACDE90401AD
:109C80009DED040B51EC100B19F06AFA08EE100A66
:109C9000B5EEC08AF1EE10FA06D39FED160AB4EEC7
:109CA000C08AF1EE10FA03DD9FED040AB0EE408A9F
:109CB000B0EE480A06B0BDEC108B10BD00000000ED
:109CC0000C00FF1F0400FF1F00000000E0FFEF403A
:109CD00000000000000008402400FF1F00000000FA
:109CE00000FEAF407B14AE47E17A743F00000000F5
:109CF0000000344000FEFF46DFED0C0AB0EE600AC3
:109D000000EE900AF8EE600A9FED091A60EE810AF3
:109D1000DFED081A80EEA11ADFED070AF0EE081A4F
:109D200041EE210AB0EE600A70470000000000001A
:109D3000FA7E7E4100FEFF46C5204A4138B5002428
:109D40000548006B0090044820300FC8FEF7B0F8BB
:109D50000446204638BD0000DC01FF1F10B52DED84
:109D6000028B82B09FED1B0AB0EE408A00241A4895
:109D7000C069009018480C300FC8FEF799F80446E7
:109D800016480068844201D2002402E013480068AB
:109D9000241A00EE104AF8EE400A9FED111A80EEE8
:109DA000810AF0EE080A20EE200AF2EE040A20EE04
:109DB000200AB0EE408AB5EEC08AF1EE10FA03D266
:109DC0009FED040AB0EE408AB0EE480A02B0BDEC46
:109DD000028B10BD00000000DC01FF1F0000FF1F10
:109DE00000FEFF46F0EE400A054890ED000A30EE16
:109DF000C01A0448D0ED001A81EE210A7047000015
:109E0000A400FF1FA000FF1F30B52DED068B8BB007
:109E1000282101A8FBF7F7FD9FED220AB0EE408A4A
:109E20009FED200AF0EE408A00241EE01E48D0F884
:109E3000940000901C488030001D0FC8FEF738F8D1
:109E400000EB4005284619F081FC41EC1A0B9FED10
:109E5000170B53EC102B19F071FA41EC190B19F098
:109E60007FF901A941F82400641C0A2CDEDB0020E4
:109E700009E001A901EB800191ED000A30EE080A2A
:109E8000B0EE408A401C0A28F3DBB2EE040AC8EEAA
:109E9000000AF0EE608AB0EE680A0BB0BDEC068BEB
:109EA00030BD000000000000DC01FF1F00000000CA
:109EB000E0FFEF4000201549D1ED000AF8EE600AFE
:109EC000DFED131A80EEA11A1249D1ED000A70EEEF
:109ED000601A9FED112ADFED110A41EE820AF0EEC1
:109EE000081A41EE210A0E49D1ED001A80EEA11A9E
:109EF000DFED0C0A61EE200AFCEEE00A10EE900A9B
:109F0000B0F5805F01D340F6FF7070470400FF1F7B
:109F100000FF7F470C00FF1FCDCC4C3D0AD7A33B71
:109F20002400FF1F00F07F4510B52DED028B82B09D
:109F300000249FED170AB0EE408A1648D0F8800042
:109F40000090144870300FC8FDF7B2FF0446B4F516
:109F5000004F00D3002400EE104AB8EE400ADFEDB7
:109F60000E0A80EE201AB0EE080A21EE000AF3EE87
:109F7000070A20EE200AF0EE080A80EE201AB0EE62
:109F8000418AB0EE480A02B0BDEC028B10BD000061
:109F900000000000DC01FF1F00FEFF46F0EE400A5B
:109FA0000C4890ED000A0C4890ED001A01EE200AD2
:109FB000B5EEC00AF1EE10FA02D29FED080A704722
:109FC000044890ED000A044890ED001A01EE200AC2
:109FD000F5E70000A400FF1FA000FF1F0000000025
:109FE00010B52DED068B9FED0D0AB0EE408A0C49A1
:109FF000486819F094FB41EC1A0B9FED0A0B53ECE7
:10A00000102B19F09BF941EC190B19F0A9F808EE87
:10A01000100AB0EE480ABDEC068B10BD000000002F
:10A020001015FF1F000000000088C34010B52DED83
:10A030000C8B9FED1A0AB0EE408A1949D1F8F40052
:10A0400019F06DFB41EC1D0B9FED160B53EC102B23
:10A0500019F0CCFB41EC1C0B9FED140B53EC102BB7
:10A0600019F06CF941EC1B0B9FED120B53EC102B0C
:10A0700019F0BCFB41EC1A0B9FED100B53EC102BAD
:10A0800019F0A0F841EC190B19F06AF808EE100A63
:10A09000B0EE480ABDEC0C8B10BD000000000000C3
:10A0A0001015FF1F1D5A643BDFCF2F40000000003A
:10A0B000C0FFDF4000000000000008406ABC74934D
:10A0C0001844294010B52DED028B9FED1E0AB0EE0D
:10A0D000408A002016F076F900EE100AF8EE400AE9
:10A0E0009FED191A80EE810A1848D0ED000A20EE83
:10A0F000200A1748D0ED000AB8EE601ADFED151AF5
:10A10000C1EE210AB0EE081A00EEC10ADFED120A14
:10A1100070EE600A114890ED000AB3EE041A00EEEA
:10A12000810AB0EE408AB5EEC08AF1EE10FA03D291
:10A130009FED040AB0EE408AB0EE480ABDEC028BF7
:10A1400010BD00000000000000F07F452400FF1F4C
:10A150000400FF1F00FF7F470AD7A33B0C00FF1F2F
:10A1600010B52DED0A8B82B09FED190AB0EE408A32
:10A170001848806D0090174848300FC8FDF798FECA
:10A18000044619F0E3FA41EC1C0B9FED130B53EC62
:10A19000102B19F0D3F841EC1B0B9FED110B53EC76
:10A1A000102B19F023FB41EC1A0B9FED0F0B53EC16
:10A1B000102B19F01BFB41EC190B18F0D1FF08EE26
:10A1C000100AB0EE480A02B0BDEC0A8B10BD0000C8
:10A1D00000000000DC01FF1F00000000E0FFEF4076
:10A1E00000000000000008400000000000002840BF
:10A1F00010B52DED088B82B09FED150AB0EE408AA8
:10A200001448C06E009013485C300FC8FDF750FE34
:10A21000044619F09BFA41EC1B0B9FED0F0B53EC1E
:10A22000102B19F08BF841EC1A0B9FED0D0B53EC32
:10A23000102B19F0DBFA41EC190B18F091FF08EE26
:10A24000100AB0EE480A02B0BDEC088B10BD000049
:10A2500000000000DC01FF1F00000000E0FFEF40F5
:10A260000000000000003E4010B52DED0C8B82B0C8
:10A270009FED1D0AB0EE408A1C48006B00901B4801
:10A2800020300FC8FDF714FE044619F05FFA41ECC8
:10A290001D0B9FED170B53EC102B19F0A7FA41EC97
:10A2A0001C0B9FED150B53EC102B19F047F841ECEC
:10A2B0001B0B9FED130B53EC102B19F097FA41EC8D
:10A2C0001A0B9FED110B53EC102B18F07BFF41EC98
:10A2D000190B18F045FF08EE100AB0EE480A02B05C
:10A2E000BDEC0C8B10BD000000000000DC01FF1F66
:10A2F0001D5A643BDFCF2F4000000000C0FFDF404D
:10A3000000000000000008406ABC74931844294013
:10A3100030B52DED028B8BB09FED200AB0EE408A58
:10A320000025282101A8FBF76EFB002418E01C483B
:10A33000C06900901A480C300FC8FDF7B9FD00EE57
:10A34000100AB8EE400A01A800EB8400D0ED000A24
:10A3500030EE200A01A800EB840080ED000A641CA6
:10A360000A2CE4DB002009E001A901EB800191ED5A
:10A37000000A30EE080AB0EE408A401C0A28F3DBDF
:10A38000B2EE040AC8EE000ABCEEE00A10EE105A63
:10A3900028460BB0BDEC028B30BD00000000000071
:10A3A000DC01FF1F30B52DED028B8BB0282101A8F9
:10A3B000FBF729FB9FED1B0AB0EE408A0025002425
:10A3C00013E01948D0F8A8000090174880301830E2
:10A3D0000FC8FDF76DFD00EE100AB8EE400A01A8A7
:10A3E00000EB840080ED000A641C0A2CE9DB0020ED
:10A3F00009E001A901EB800191ED000A30EE080AA5
:10A40000B0EE408A401C0A28F3DBB2EE040AC8EE24
:10A41000000ABCEEE00A10EE105A28460BB0BDEC64
:10A42000028B30BD00000000DC01FF1F10B50446A8
:10A430000448006818F04CFD0348006818F05CFD03
:10A4400010BD00009400FF1F9800FF1F70B52DED98
:10A45000048B04469FEDE30A10EE105A9FEDE10ACB
:10A4600010EE106A9FEDDF0AB0EE408ADA2000F0AD
:10A47000A6FFDD490860DE2000F0A1FFDB4908608F
:10A48000D948008881B2002018F0D0FCD748006875
:10A49000D749C1F8F40015F0F5FFD6490870D24845
:10A4A0000068FFF78BFBB0EE408AD34890ED000ABE
:10A4B000002017F0F9F9CD480068FFF71DFC10EEF9
:10A4C000105A18EE100A19F0AFFB41EC190B53ECBF
:10A4D000192BCAA1D0480AF06BFE2146CE4801F0E4
:10A4E0002DFB204613F0FEFFB0EE480AFFF756FDA5
:10A4F00010EE106A304619F097FB41EC190B53EC43
:10A50000192BC6A1C4480AF053FE2146C24801F0E7
:10A5100015FB204613F0E6FF284619F085FB41ECB9
:10A52000190B53EC192BC4A1BB480AF041FE21467C
:10A53000B94801F003FB204613F0D4FFC448027869
:10A54000C4A1B5480AF034FE2146B34801F0F6FA3A
:10A55000204613F0C7FFA748007800287ED1C0A18D
:10A56000AD480AF025FE0221AB4801F0E7FA0220CF
:10A5700013F0B8FFBEA1A8480AF01AFE0221A648AF
:10A5800001F0DCFA022013F0ADFFBEA1A2480AF0F0
:10A590000FFE0221A04801F0D1FA022013F0A2FF21
:10A5A000BDA19D480AF004FE02219B4801F0C6FAB5
:10A5B000022013F097FFBDA197480AF0F9FD022190
:10A5C000954801F0BBFA022013F08CFFBDA1924820
:10A5D0000AF0EEFD0221904801F0B0FA022013F0DB
:10A5E00081FFBCA18C480AF0E3FD02218A4801F0FA
:10A5F000A5FA022013F076FFBAA187480AF0D8FD29
:10A600000221854801F09AFA022013F06BFFBBA1EA
:10A6100081480AF0CDFD02217F4801F08FFA022027
:10A6200013F060FFB9A17C480AF0C2FD02217A480C
:10A6300001F084FA022013F055FFB8A176480AF021
:10A64000B7FD0221744801F079FA022013F04AFFA5
:10A65000B8A171480AF0ACFD022100E020E06E488C
:10A6600001F06CFA022013F03DFF00F0D0FA58B16F
:10A67000B6A169480AF09CFD0221674801F05EFA24
:10A68000022013F02FFFA9E0B6A163480AF090FD65
:10A690000221614801F052FA022013F023FF9DE0ED
:10A6A000B6A15D480AF084FD02215B4801F046FA3C
:10A6B000022013F017FFB5A157480AF079FD0221D7
:10A6C000554801F03BFA022013F00CFFB4A15248A8
:10A6D0000AF06EFD0221504801F030FA022013F01A
:10A6E00001FFB4A14C480AF063FD02214A4801F081
:10A6F00025FA022013F0F6FEB4A147480AF058FDEF
:10A700000221454801F01AFA022013F0EBFEB7A12E
:10A7100041480AF04DFD02213F4801F00FFA0220A6
:10A7200013F0E0FEB5A13C480AF042FD02213A4890
:10A7300001F004FA022013F0D5FEB4A136480AF065
:10A7400037FD0221344801F0F9F9022013F0CAFE66
:10A75000B3A131480AF02CFD02212F4801F0EEF997
:10A76000022013F0BFFEB2A12B480AF021FD022106
:10A77000294801F0E3F9022013F0B4FEB0A1264805
:10A780000AF016FD0221244801F0D8F9022013F046
:10A79000A9FEB1A120480AF00BFD02211E4801F0DC
:10A7A000CDF9022013F09EFE00F031FA58B1AFA1AE
:10A7B00019480AF0FDFC0221174801F0BFF90220F8
:10A7C00013F090FE0AE0AFA113480AF0F1FC022159
:10A7D000114801F0B3F9022013F084FEBDEC048BA4
:10A7E00070BD0000000000009400FF1F9800FF1FD4
:10A7F0001015FF1F9D00FF1F6800FF1F744C64545D
:10A80000617263757272656E742E7478743D222560
:10A810002E32662200000000D014FF1F744C6454D6
:10A820006172676574706F7765722E7478743D22FB
:10A83000252E326622000000744C645461727465E7
:10A840006D702E7478743D22252E32662200000031
:10A850009C00FF1F63302E76616C3D256400000074
:10A860006C616E67756167652E76616C3D310000C5
:10A870006C616E2E7478743D22BCF2CCE5D6D0CEDD
:10A88000C42200006C706F7765722E7478743D225C
:10A89000B9A6C2CA220000006C63757272656E743C
:10A8A0002E7478743D22B5E7C1F722006C74656D93
:10A8B000706572617472652E7478743D22CEC2B672
:10A8C000C8220000736176652E7478743D22B1A3AE
:10A8D000B4E622006C6F61642E7478743D22BCD3A0
:10A8E000D4D822006175746F72756E2E7478743DC1
:10A8F00022D7D4BCD3D4D82200000000736574637F
:10A900002E7478743D22C9E8D6C32200736574742E
:10A910002E7478743D22C9E8D6C32200536574555D
:10A92000492E6261636B2E7478743D22C8A1CFFBFF
:10A930000000000053657455492E737572652E74BE
:10A9400078743D22C8B7B6A822000000625F6C642C
:10A950007377697463682E7478743D224C4420BF09
:10A96000AA220000625F6C647377697463682E7456
:10A9700078743D224C4420B9D82200006C616E6787
:10A98000756167652E76616C3D3000006C616E2EDE
:10A990007478743D22456E676C697368220000000C
:10A9A0006C706F7765722E7478743D22506F776586
:10A9B000722200006C63757272656E742E74787406
:10A9C0003D2243757272656E742200006C74656D71
:10A9D000706572617472652E7478743D2254656D71
:10A9E00070657261747265220000000073617665A3
:10A9F0002E7478743D225361766522006C6F616419
:10AA00002E7478743D224C6F616422006175746FFE
:10AA100072756E2E7478743D224175746F22000039
:10AA2000736574632E7478743D227365742200001C
:10AA3000736574742E7478743D22736574220000FB
:10AA400053657455492E6261636B2E7478743D2290
:10AA500063616E63656C220053657455492E73758E
:10AA600072652E7478743D226F6B2200625F6C6495
:10AA70007377697463682E7478743D224C44204F58
:10AA80004E220000625F6C647377697463682E7491
:10AA900078743D224C44204F4646220070B504464F
:10AAA0000826002517E0002202210320FFF742F8C4
:10AAB000E5096006040E2A4603210846FFF73AF826
:10AAC0000120FDF733FC012202210320FFF732F8B9
:10AAD0000120FDF72BFC3000A6F10101CEB2E2D13E
:10AAE000002202210320FFF725F870BD10B50122D6
:10AAF00003210846FFF71EF8012202210320FFF779
:10AB000019F80320FDF712FC002203210846FFF785
:10AB100011F80320FDF70AFC002202210320FFF7B1
:10AB200009F810BD10B5002203210846FFF702F80E
:10AB3000012202210320FEF7FDFF0320FDF7F6FBB3
:10AB4000012203210846FEF7F5FF0320FDF7EEFB87
:10AB5000002202210320FEF7EDFF10BD10B54024B6
:10AB6000012203210846FEF7E5FF0120FDF7DEFB89
:10AB7000012202210320FEF7DDFF06E0601EC4B2C1
:10AB80001CB9FFF7CFFF012010BD03210846FEF7D7
:10AB9000B7FF0128F2D0002202210320FEF7CAFFEE
:10ABA0000020F1E710B5024814F0F6FF10BD0000D8
:10ABB0001015FF1F10B5032300220C490C4813F099
:10ABC00057FD18B10BA009F059F802E00CA009F0EC
:10ABD00055F800220C49064813F0F8FC4FF47A723D
:10ABE0000121034813F027FF10BD00004C40020074
:10ABF0005818FF1F204641494C4544210A000000D7
:10AC0000204F4B0A0000000059E50100704710B5C5
:10AC10000A210420FEF758FF10BD000070B505465C
:10AC20000C4622460A210420FEF784FF04F00100AE
:10AC30000649087004F0010030B900204870002275
:10AC400002210120FEF776FF70BD00007414FF1F83
:10AC50003EB5044602940298006B0190019868B1D9
:10AC60000F4801990DF008FF029901F13000096BBE
:10AC7000019A114301600298806800900298006A6E
:10AC80000190019800F0070040B1029901F1200005
:10AC9000096A019A02F00702114301603EBD0000FB
:10ACA0001416FF1F10B5024650186423B0FBF3F4CE
:10ACB00003FB140010BD704710B5124B9B6B124C78
:10ACC00054F8204023430F4CA363104B53F820301B
:10ACD00053F8213023F4E0630C4C54F8204044F83E
:10ACE00021300A4B53F8203053F821304FF4E06400
:10ACF00004EA02242343054C54F8204044F8213050
:10AD000010BD0000008004402440020010400200FA
:10AD100010B5124B9B6B124C54F8204023430F4C40
:10AD2000A363012A0CD10F4B53F8203053F8213084
:10AD300043F020030B4C54F8204044F821300BE042
:10AD4000084B53F8203053F8213023F02003054CF2
:10AD500054F8204044F8213010BD00000080044029
:10AD6000244002001040020010B5284B9B6B284C79
:10AD700054F820402343254CA36322B1012A0FD06D
:10AD8000022A3FD125E0234B53F8203053F82130DD
:10AD900023F002031F4C54F8204044F8213032E0E5
:10ADA0001C4B53F8203053F8213043F00203194C68
:10ADB00054F8204044F82130164B53F8203053F813
:10ADC000213043F00103134C54F8204044F8213063
:10ADD00019E0104B53F8203053F8213043F00203B0
:10ADE0000C4C54F8204044F821300A4B53F82030E2
:10ADF00053F8213023F00103064C54F8204044F866
:10AE0000213000E000BF00BF10BD00000080044002
:10AE10002440020010400200F0B58BB005460F46FA
:10AE20002846FDF792FA00287ED1182101A8FAF7EA
:10AE3000EAFD3946284612F01DF80446012C74D16B
:10AE400001AA0AA9284612F0D5F80646522E6DD05E
:10AE50003DDC262E6BD015DC6AD2DFE806F0698A6D
